:100000000C9462000C948A000C948A000C948A0070
:100010000C948A000C948A000C948A000C948A0038
:100020000C948A000C948A000C948A000C94540559
:100030000C948A000C948A000C948A000C948A0018
:100040000C94B2040C948A000C9422050C94FC04C9
:100050000C948A000C948A000C948A000C948A00F8
:100060000C948A000C948A000000000024002700F1
:100070002A0000000000250028002B0000000000DE
:1000800023002600290004040404040404040202DA
:100090000202020203030303030301020408102007
:1000A0004080010204081020010204081020000012
:1000B0000008000201000003040700000000000027
:1000C0000000100611241FBECFEFD8E0DEBFCDBF69
:1000D00011E0A0E0B1E0E2EEF0E102C005900D9287
:1000E000A638B107D9F722E0A6E8B1E001C01D9219
:1000F000A43CB207E1F710E0C2E6D0E004C02197CB
:10010000FE010E946908C136D107C9F70E94B806EE
:100110000C946F080C9400008F929F92AF92BF9244
:10012000FF920F931F93CF93DF93F090C1022BE0C8
:100130002F1508F44CC02091C30208E512E0021B01
:10014000110927FD1395000F111F000F111F20919A
:10015000C202C8E8D0E0C21BD10927FDD395CC0F5D
:10016000DD1FCC0FDD1F4E010D2E000CAA08BB08B1
:100170009801012E000C440B550B281939094A0926
:100180005B09DC010E941D0824EB30E040E050E0F8
:100190000E94F307820E931EA41EB51E8C169D06A8
:1001A0002CF0E801801691060CF4E4012297CC0FA4
:1001B000DD1F2FB7F8948F2D90E0FC01EE0FFF1F8D
:1001C000E80FF91FE35DFD4FD283C1832FBFDF919D
:1001D000CF911F910F91FF90BF90AF909F908F9004
:1001E000089596E0899FD0011124AE5ABD4F909694
:1001F0007C936E935F9791E091969C939197E09199
:10020000BF02F091C0029091BE02992339F030975D
:1002100051F0811108C080916E020994309719F055
:100220005C968C91FACF0895833081F028F4813068
:1002300099F08230A9F008958730A9F08830C9F08C
:100240008430B1F4809180008F7D03C08091800064
:100250008F7780938000089584B58F7784BD08954B
:1002600084B58F7DFBCF8091B0008F778093B000F5
:1002700008958091B0008F7DF9CFCF93DF93282F21
:1002800030E0F901E255FF4F8491F901E656FF4F46
:10029000D491F901EA57FF4FC491CC23A1F0811109
:1002A0000E941401EC2FF0E0EE0FFF1FE458FF4F07
:1002B000A591B491EC91ED2381E090E009F480E008
:1002C000DF91CF91089580E090E0FACF862F0C94D3
:1002D0003D011F93CF93DF93282F30E0F901E255C2
:1002E000FF4F8491F901E656FF4FD491F901EA5787
:1002F000FF4FC491CC23A9F0162F81110E94140145
:10030000EC2FF0E0EE0FFF1FEE58FF4FA591B491D8
:100310008FB7F894EC91111108C0D095DE23DC93CF
:100320008FBFDF91CF911F910895DE2BF8CF862FDD
:10033000642F0C946901CF93DF9390E0FC01E656A3
:10034000FF4F24918A579F4FFC0184918823C9F065
:1003500090E0880F991FFC01E859FF4FA591B491D7
:10036000FC01EE58FF4FC591D49161110DC09FB7AC
:10037000F8948C91209582238C938881282328835C
:100380009FBFDF91CF910895623051F49FB7F894E9
:100390003C91822F809583238C93E8812E2BEFCF85
:1003A0008FB7F894EC912E2B2C938FBFEACF862F2A
:1003B000642F0C949B012FB7F89460918C0170917D
:1003C0008D0180918E0190918F012FBF08950F9321
:1003D0001F93CF93DF93C82FD62F86E0C89FF001DD
:1003E0001124EE5AFD4F11A2878D90A18130910505
:1003F000F1F058F082309105F1F1039709F440C013
:10040000DF91CF911F910F9108956623C9F361E0A9
:1004100070E08C2F0E94F1000E94DB016093AA0221
:100420007093AB028093AC029093AD02E9CF0E942F
:10043000DB010091AA021091AB022091AC02309135
:10044000AD02AB01BC01401B510B620B730B8091E1
:10045000BC029091BD02B0E0A0E084179507A6070A
:10046000B70748F462E070E08C2FDF91CF911F91C5
:100470000F910C94F10063E070E0D111C1CFF4CF83
:1004800070E060E0F1CF6F927F928F929F92AF9277
:10049000BF92CF92DF92EF92FF920F931F93CF9371
:1004A000DF9381E08093BE020E94DB010091AE02E7
:1004B0001091AF022091B0023091B102AB01BC01AA
:1004C000401B510B620B730B8091BA029091BB02DF
:1004D000B0E0A0E084179507A607B70708F014C19D
:1004E000C0E08091B802C81760F4E091B402F091C6
:1004F000B502EC0FF11D62E080810E949B01CF5F8D
:10050000F0CF712C812C912C540183948091B902ED
:10051000781608F05FC0072D10E0E091B602F09168
:10052000B702E00FF11F61E080810E949B01E09122
:10053000B602F091B702E00FF11F60E080810E94E7
:100540006901D501C401072C04C0880F991FAA1F97
:10055000BB1F0A94D2F76C017C01E094F094612CEB
:100560008091B8026816F8F4C62DD0E0E091B4028C
:10057000F091B502EC0FFD1F80810E943D01249691
:10058000CC0FDD1FCE5ADD4F892B41F48881998134
:100590008C299D29998388836394E2CF88819981EE
:1005A0008E219F21F7CFE091B602F091B702E00FC4
:1005B000F11F61E080810E9469018091B6029091F3
:1005C000B702080F191F60E0F80180810E949B01AB
:1005D00073949CCFC2E5D2E0FE018FEF9FEF278D91
:1005E00030A1232B21F4148E968F858F11A236967D
:1005F00022E0EE38F20799F7F12C96E0D92E80919F
:10060000B802F81608F050C0E12C0F2D10E0000FD2
:10061000111F065A1D4F2091B902E21608F042C080
:10062000F801608171810E2C02C0769567950A945D
:10063000E2F7F29E900111242E0D311DE2E5F2E069
:1006400080E0458D568D2417350709F461C08F5F12
:1006500036968A30B1F760FF23C0E2E5F2E090E021
:1006600080E0448D411117C0E091B202F091B302D5
:10067000E20FF31F4081D89EF001D99EF00D1124A6
:10068000EE5AFD4F448F368F258F10A2178E61E0F2
:100690000E94E70105C0019636968A30910509F758
:1006A000E394B9CFF394ABCF10E089A18111182F57
:1006B0002696F2E0CE38DF07C1F70E94DB01609397
:1006C000AE027093AF028093B0029093B1021123F7
:1006D000D9F0809173028823B9F0809171029091D2
:1006E0007202019789F480916E02DF91CF911F9180
:1006F0000F91FF90EF90DF90CF90BF90AF909F90C1
:100700008F907F906F9008951092BE0280E0EDCFA1
:100710006170BECFAF92BF92CF92DF92EF92FF9205
:100720000F931F93CF93DF936C017B018B01040F19
:10073000151FEB015E01AE18BF08C017D10759F0B5
:100740006991D601ED91FC910190F081E02DC601F7
:100750000995892B79F7C501DF91CF911F910F91F1
:10076000FF90EF90DF90CF90BF90AF900895FC0185
:10077000538D448D252F30E0842F90E0821B930B06
:10078000541710F0CF96089501970895FC01918DAC
:10079000828D981761F0A28DAE0FBF2FB11D5D96AF
:1007A0008C91928D9F5F9F73928F90E008958FEF51
:1007B0009FEF0895FC01918D828D981731F0828D05
:1007C000E80FF11D858D90E008958FEF9FEF08955C
:1007D000FC01918D228D892F90E0805C9F4F821BC0
:1007E00091098F739927089580E991E00E94E803A9
:1007F00021E0892B09F420E0822F089580E090E029
:10080000892B29F00E94F40381110C9400000895B3
:10081000FC01A48DA80FB92FB11DA35ABF4F2C9175
:10082000848D90E001968F739927848FA689B7896C
:100830002C93A089B1898C91837080648C93938D63
:10084000848D981306C00288F389E02D80818F7D06
:1008500080830895EF92FF920F931F93CF93DF93BE
:10086000EC0181E0888F9B8D8C8D98131AC0E889EC
:10087000F989808185FF15C09FB7F894EE89FF89BB
:100880006083E889F98980818370806480839FBF59
:1008900081E090E0DF91CF911F910F91FF90EF9059
:1008A0000895F62E0B8D10E00F5F1F4F0F73112769
:1008B000E02E8C8D8E110CC00FB607FCFACFE889A4
:1008C000F989808185FFF5CFCE010E940804F1CF20
:1008D000EB8DEC0FFD2FF11DE35AFF4FF0829FB718
:1008E000F8940B8FEA89FB8980818062CFCFCF9308
:1008F000DF93EC01888D8823B9F0AA89BB89E88948
:10090000F9898C9185FD03C0808186FD0DC00FB6ED
:1009100007FCF7CF8C9185FFF2CF808185FFEDCF6B
:10092000CE010E940804E9CFDF91CF910895FC0128
:1009300001900020E9F73197AF01481B590BBC012A
:1009400080E991E00C948A03CF93DF930E9497048F
:10095000EC0184E391E00E9497048C0F9D1FDF91CE
:10096000CF9108951F920F920FB60F9211242F93DB
:100970003F938F939F93AF93BF9380918C019091FE
:100980008D01A0918E01B0918F0130918B0123E0F8
:10099000230F2D3758F50196A11DB11D20938B0112
:1009A00080938C0190938D01A0938E01B0938F0161
:1009B0008091870190918801A0918901B0918A016D
:1009C0000196A11DB11D8093870190938801A0938A
:1009D0008901B0938A01BF91AF919F918F913F910F
:1009E0002F910F900FBE0F901F90189526E8230FA0
:1009F0000296A11DB11DD2CF1F920F920FB60F927A
:100A000011242F933F934F935F936F937F938F9313
:100A10009F93AF93BF93EF93FF9380E991E00E9480
:100A20000804FF91EF91BF91AF919F918F917F91BA
:100A30006F915F914F913F912F910F900FBE0F904B
:100A40001F9018951F920F920FB60F9211242F939B
:100A50008F939F93EF93FF93E091A001F091A101F9
:100A60008081E091A601F091A70182FD1BC09081D9
:100A70008091A9018F5F8F732091AA01821741F0A5
:100A8000E091A901F0E0E057FE4F958F8093A90116
:100A9000FF91EF919F918F912F910F900FBE0F902B
:100AA0001F9018958081F4CF1F920F920FB60F926E
:100AB00011242F933F934F935F936F937F938F9363
:100AC0009F93AF93BF93CF93DF93EF93FF93809167
:100AD0008601C0915102D0E087FF24C010928500AA
:100AE00010928400809186018F5F809386018091AF
:100AF0008601082E000C990B8C179D0724F4809119
:100B000086018C30C4F18091840090918500049618
:100B100080349C4908F47AC08091840090918500CB
:100B2000049676C080918601082E000C990B8C17D4
:100B30009D07C4F6E09186018E2FEE0F990BFC0104
:100B4000EE0FFF1FE80FF91FE35DFD4F808186FF69
:100B5000C9CFE09186018E2FEE0F990BFC01EE0FAD
:100B6000FF1FE80FF91FE35DFD4F808160E08F7389
:100B70000E946901B7CF2091840030918500E091F7
:100B800086018E2FEE0F990BFC01EE0FFF1FE80F71
:100B9000F91FE35DFD4F81819281820F931F909336
:100BA000890080938800E09186018E2FEE0F990BCB
:100BB000FC01EE0FFF1FE80FF91FE35DFD4F808181
:100BC00086FF11C0E09186018E2FEE0F990BFC017C
:100BD000EE0FFF1FE80FF91FE35DFD4F808161E01D
:100BE0008F730E946901FF91EF91DF91CF91BF91C7
:100BF000AF919F918F917F916F915F914F913F91B5
:100C00002F910F900FBE0F901F90189580E49CE9D4
:100C100090938900809388008FEF80938601E3CFC3
:100C2000109293011092920188EE93E0A0E0B0E060
:100C30008093940190939501A0939601B0939701AE
:100C40008CE191E0909391018093900185EC90E08C
:100C500090939D0180939C0184EC90E090939F0180
:100C600080939E0180EC90E09093A1018093A0017D
:100C700081EC90E09093A3018093A20182EC90E03C
:100C80009093A5018093A40186EC90E09093A70136
:100C90008093A6011092A9011092AA011092AB01B3
:100CA0001092AC01809151028C3008F05DC091E04F
:100CB000980F909351028093C10290E0FC01EE0FD7
:100CC000FF1FE80FF91FE35DFD4F88EB9BE0928368
:100CD000818310925402109258021092570210927F
:100CE00059028EE291E09093530280935202EEE615
:100CF000F2E01082148213821582369682E0EA3A7C
:100D0000F807B9F784E091E09093B5028093B402BC
:100D100080E091E09093B7028093B60284E08093E4
:100D2000B8028093B90288E091E09093B302809377
:100D3000B2028AE090E09093BB028093BA0284EF03
:100D400091E09093BD028093BC021092C002109279
:100D5000BF021092AE021092AF021092B002109237
:100D6000B1021092BE0208958FEF8093C102B1CFFD
:100D7000CF93DF93CDB7DEB7A1970FB6F894DEBF60
:100D80000FBECDBF789484B5826084BD84B5816088
:100D900084BD85B5826085BD85B5816085BD809146
:100DA0006E00816080936E001092810080918100BE
:100DB00082608093810080918100816080938100B6
:100DC000809180008160809380008091B100846078
:100DD0008093B1008091B00081608093B0008091D9
:100DE0007A00846080937A0080917A008260809398
:100DF0007A0080917A00816080937A0080917A00F5
:100E0000806880937A001092C100E091A001F09177
:100E1000A10182E08083E0919C01F0919D0110820C
:100E2000E0919E01F0919F018FEC80831092A801C8
:100E3000E091A401F091A50186E08083E091A201F8
:100E4000F091A301808180618083E091A201F09103
:100E5000A301808188608083E091A201F091A301C9
:100E6000808180688083E091A201F091A30180815C
:100E70008F7D80838091C1028C3008F051C061E089
:100E80008AE00E949B018091C102282F30E0F90185
:100E9000EE0FFF1FE20FF31FE35DFD4F9081907C8B
:100EA0009A6090831092C2021092C3022CE0622FCB
:100EB0000E945608829FB001112430E020E0AB016F
:100EC000420F531FFA01EE0FFF1FE40FF51FE35D02
:100ED000FD4F908196FD16C02F5F3F4F2C3031059E
:100EE00071F781110FC01092800082E08093810021
:100EF0001092850010928400B19A80916F008260F8
:100F000080936F00E091C1028E2F90E0FC01EE0F04
:100F1000FF1FE80FF91FE35DFD4F80818064808330
:100F200090E080E00E948C0080E0E82E80E0F82EC7
:100F30000E9443029FEC980F993008F049C0082F97
:100F4000880F110B005311098AE590E00E948C0074
:100F500087E391E00E94970419A280E3800F88A3A1
:100F6000CE0180960E94970486E491E00E94A4043A
:100F70000E94DB014B015C0120E63AEED8010E94A1
:100F80006208860E971EA81EB91E0E94DB01681516
:100F900079058A059B0540F40E9443028134A9F734
:100FA0008FE491E00E94A40490E080E00E948C0015
:100FB00080E691E00E94A404E114F10409F4B8CFA2
:100FC0000E94F403882309F4B3CF0E940000B0CF3D
:100FD000813491F78CE691E00E94A40490E080E0D7
:100FE0000E948C00E9CF052E97FB1EF400940E940E
:100FF0000A0857FD07D00E94250807FC03D04EF4CD
:101000000C940A0850954095309521953F4F4F4FCD
:101010005F4F089590958095709561957F4F8F4FA4
:101020009F4F08950E944708A59F900DB49F900D73
:10103000A49F800D911D11240895B7FF0C941208F0
:101040000E941208821B930B0895A1E21A2EAA1B7C
:10105000BB1BFD010DC0AA1FBB1FEE1FFF1FA21768
:10106000B307E407F50720F0A21BB30BE40BF50B65
:10107000661F771F881F991F1A9469F760957095EE
:10108000809590959B01AC01BD01CF010895A29F71
:10109000B001B39FC001A39F700D811D1124911D4C
:1010A000B29F700D811D1124911D0895991B79E047
:1010B00004C0991F961708F0961B881F7A95C9F7E8
:1010C000809508950E944708B7FF0895821B930BEF
:1010D0000895EE0FFF1F0590F491E02D0994F89408
:0210E000FFCF40
:1010E200060708090203040531323341343536421A
:1010F200373839432A302344000000002A048A0387
:10110200B7037704E803C603DA0300000000D7013F
:10111200970166010D0A0047617465204F70656E84
:1011220020666F722000206D696E757465730045CC
:101132006D657267656E637920436C6F736521001C
:101142004761746520436C6F73656400456D657219
:1011520067656E637920436C6F73652041637469C0
:0611620076617465640073
:00000001FF
